{
  "contractName": "TodoList",
  "abi": [
    {
      "constant": true,
      "inputs": [
        {
          "name": "",
          "type": "uint256"
        }
      ],
      "name": "tasks",
      "outputs": [
        {
          "name": "id",
          "type": "uint256"
        },
        {
          "name": "content",
          "type": "string"
        },
        {
          "name": "completed",
          "type": "bool"
        }
      ],
      "payable": false,
      "stateMutability": "view",
      "type": "function",
      "signature": "0x8d977672"
    },
    {
      "constant": true,
      "inputs": [],
      "name": "taskCount",
      "outputs": [
        {
          "name": "",
          "type": "uint256"
        }
      ],
      "payable": false,
      "stateMutability": "view",
      "type": "function",
      "signature": "0xb6cb58a5"
    },
    {
      "inputs": [],
      "payable": false,
      "stateMutability": "nonpayable",
      "type": "constructor",
      "signature": "constructor"
    },
    {
      "constant": false,
      "inputs": [
        {
          "name": "content",
          "type": "string"
        }
      ],
      "name": "createTask",
      "outputs": [],
      "payable": false,
      "stateMutability": "nonpayable",
      "type": "function",
      "signature": "0x111002aa"
    },
    {
      "constant": true,
      "inputs": [
        {
          "name": "_id",
          "type": "uint256"
        }
      ],
      "name": "getTaskByID",
      "outputs": [
        {
          "name": "",
          "type": "string"
        }
      ],
      "payable": false,
      "stateMutability": "view",
      "type": "function",
      "signature": "0x3d89321f"
    }
  ],
  "bytecode": "0x60806040526000805534801561001457600080fd5b506100626040805190810160405280601881526020017f436f6d706c65746520576574756c6120506c6174666f726d0000000000000000815250610067640100000000026401000000009004565b6101d0565b6000806000815480929190600101919050559050610083610107565b60606040519081016040528083815260200184815260200160001515815250905080600160008481526020019081526020016000206000820151816000015560208201518160010190805190602001906100de92919061012b565b5060408201518160020160006101000a81548160ff021916908315150217905550905050505050565b60606040519081016040528060008152602001606081526020016000151581525090565b828054600181600116156101000203166002900490600052602060002090601f016020900481019282601f1061016c57805160ff191683800117855561019a565b8280016001018555821561019a579182015b8281111561019957825182559160200191906001019061017e565b5b5090506101a791906101ab565b5090565b6101cd91905b808211156101c95760008160009055506001016101b1565b5090565b90565b610685806101df6000396000f3fe608060405260043610610062576000357c0100000000000000000000000000000000000000000000000000000000900463ffffffff168063111002aa146100675780633d89321f1461012f5780638d977672146101e3578063b6cb58a5146102a9575b600080fd5b34801561007357600080fd5b5061012d6004803603602081101561008a57600080fd5b81019080803590602001906401000000008111156100a757600080fd5b8201836020820111156100b957600080fd5b803590602001918460018302840111640100000000831117156100db57600080fd5b91908080601f016020809104026020016040519081016040528093929190818152602001838380828437600081840152601f19601f8201169050808301925050505050505091929192905050506102d4565b005b34801561013b57600080fd5b506101686004803603602081101561015257600080fd5b8101908080359060200190929190505050610374565b6040518080602001828103825283818151815260200191508051906020019080838360005b838110156101a857808201518184015260208101905061018d565b50505050905090810190601f1680156101d55780820380516001836020036101000a031916815260200191505b509250505060405180910390f35b3480156101ef57600080fd5b5061021c6004803603602081101561020657600080fd5b81019080803590602001909291905050506104bb565b604051808481526020018060200183151515158152602001828103825284818151815260200191508051906020019080838360005b8381101561026c578082015181840152602081019050610251565b50505050905090810190601f1680156102995780820380516001836020036101000a031916815260200191505b5094505050505060405180910390f35b3480156102b557600080fd5b506102be61058a565b6040518082815260200191505060405180910390f35b60008060008154809291906001019190505590506102f0610590565b606060405190810160405280838152602001848152602001600015158152509050806001600084815260200190815260200160002060008201518160000155602082015181600101908051906020019061034b9291906105b4565b5060408201518160020160006101000a81548160ff021916908315150217905550905050505050565b60606000600160008481526020019081526020016000206000015414151515610405576040517f08c379a00000000000000000000000000000000000000000000000000000000081526004018080602001828103825260148152602001807f5461736b20646f6573206e6f742065786973742000000000000000000000000081525060200191505060405180910390fd5b600160008381526020019081526020016000206001018054600181600116156101000203166002900480601f0160208091040260200160405190810160405280929190818152602001828054600181600116156101000203166002900480156104af5780601f10610484576101008083540402835291602001916104af565b820191906000526020600020905b81548152906001019060200180831161049257829003601f168201915b50505050509050919050565b6001602052806000526040600020600091509050806000015490806001018054600181600116156101000203166002900480601f01602080910402602001604051908101604052809291908181526020018280546001816001161561010002031660029004801561056d5780601f106105425761010080835404028352916020019161056d565b820191906000526020600020905b81548152906001019060200180831161055057829003601f168201915b5050505050908060020160009054906101000a900460ff16905083565b60005481565b60606040519081016040528060008152602001606081526020016000151581525090565b828054600181600116156101000203166002900490600052602060002090601f016020900481019282601f106105f557805160ff1916838001178555610623565b82800160010185558215610623579182015b82811115610622578251825591602001919060010190610607565b5b5090506106309190610634565b5090565b61065691905b8082111561065257600081600090555060010161063a565b5090565b9056fea165627a7a72305820a2470400ba336beb4e329c0bd6f04260ffb76491b136189115361a75bfcc51300029",
  "source": "pragma solidity ^0.5.0;\r\n\r\ncontract TodoList {\r\n\r\n    struct Task{\r\n        uint id;\r\n        string content;\r\n        bool completed;\r\n    }\r\n\r\n    uint public taskCount = 0;\r\n    mapping (uint => Task) public tasks;\r\n\r\n    constructor() public{\r\n       createTask(\"Complete Wetula Platform\");\r\n    }\r\n\r\n\r\n    \r\n    function createTask(string memory content) public {\r\n        uint taskId = taskCount++;\r\n\r\n        Task memory task = Task({id: taskId, content: content, completed: false });\r\n        tasks[taskId] = task;\r\n    }\r\n\r\n    function getTaskByID(uint _id) view public returns (string memory) {\r\n        require(tasks[_id].id != 0, \"Task does not exist \");\r\n\r\n        return tasks[_id].content;\r\n    }\r\n\r\n   \r\n}",
  "sourcePath": "C:/projects/BLOCKCHAIN STACK/eth-todolist-app/contracts/TodoList.sol",
  "compiler": {
    "name": "solc",
    "version": "0.5.0+commit.1d4f565a.Emscripten.clang"
  },
  "schemaVersion": "3.0.6",
  "updatedAt": "2019-04-22T11:45:17.715Z",
  "devdoc": {
    "methods": {}
  },
  "userdoc": {
    "methods": {}
  }
}